:020000020000FC
:100000000C942A000C942A000C942A000C942A00C8
:100010000C942A000C942A000C942A000C9495004D
:100020000C942A000C942A000C942A000C942A00A8
:100030000C942A000C942A000C942A000C942A0098
:100040000C942A000C942A000C942A000C942A0088
:100050000C942A00F89400E00AB9E02E00E008BBF6
:100060000FEF07BB00E004BB05BB0FEF0BBB919A82
:10007000909ADE9800E40ABB03E001BB9098909A46
:10008000CD9B09C008E3C02E00E4D02E04E00BBDD8
:1000900000E00ABD08C006E0C02E08E2D02E03E052
:1000A0000BBD08EF0ABD00E00FBD09E00EBD00E189
:1000B00009BF00E808B900E805BF08E00EBF0FE57A
:1000C0000DBF60E050E040E0C0E6D0E020E030E06E
:1000D00090E098808FE500E000E00DBD0CBD0CE1E4
:1000E00008BFDE98DE9A7CE03DD27EEB3BD278946E
:1000F000803041F09F3F21F09C3122F4988206C06D
:10010000888304C0888397330AF0992709B300785D
:100110001BB31074110F012759F3988273B31BB3EB
:1001200000E410271BBB1ED2E3CF0F921F92EF9368
:10013000FF930F930FB70F930CB5043159F00531AE
:1001400061F0063169F0073171F0083179F0000093
:10015000000000000000000000000000000000009F
:1001600000000000000000000000000091985030E6
:1001700079F4443008F001C0E9C14D1508F001C020
:1001800010C04D1511F460E00EC0683C60F009C06D
:10019000683C48F04C1529F450E040E09F3F09F0DE
:1001A00093956FEF0FC0A0E5B0E6062F0695069574
:1001B0000695A09F00E60B0E101ED001E0E0F62F82
:1001C000F770F0610CB50035E8F30CB5023579F045
:1001D000033581F0043589F0053591F0063599F045
:1001E0000735A1F00835A9F000000000000000006C
:1001F00000000000000000000000000000000000FF
:1002000000000000000000000000000000000000EE
:100210000000919A6F3F09F499C100E003950A32FA
:10022000E8F302B3A02E0E7FB02EED91049108BB2F
:10023000B2BAA2BAED91049108BBB2BAA2BAED91DA
:10024000049108BBB2BAA2BAED91049108BBB2BA4C
:10025000A2BAED91049108BBB2BAA2BAED91049191
:1002600008BBB2BAA2BAED91049108BBB2BAA2BA65
:10027000ED91049108BBB2BAA2BAED91049108BB0A
:10028000B2BAA2BAED91049108BBB2BAA2BAED918A
:10029000049108BBB2BAA2BAED91049108BBB2BAFC
:1002A000A2BAED91049108BBB2BAA2BAED91049141
:1002B00008BBB2BAA2BAED91049108BBB2BAA2BA15
:1002C000ED91049108BBB2BAA2BAED91049108BBBA
:1002D000B2BAA2BAED91049108BBB2BAA2BAED913A
:1002E000049108BBB2BAA2BAED91049108BBB2BAAC
:1002F000A2BAED91049108BBB2BAA2BAED910491F1
:1003000008BBB2BAA2BAED91049108BBB2BAA2BAC4
:10031000ED91049108BBB2BAA2BAED91049108BB69
:10032000B2BAA2BAED91049108BBB2BAA2BAED91E9
:10033000049108BBB2BAA2BAED91049108BBB2BA5B
:10034000A2BAED91049108BBB2BAA2BAED910491A0
:1003500008BBB2BAA2BAED91049108BBB2BAA2BA74
:10036000ED91049108BBB2BAA2BAED91049108BB19
:10037000B2BAA2BAED91049108BBB2BAA2BAED9199
:10038000049108BBB2BAA2BAED91049108BBB2BA0B
:10039000A2BAED91049108BBB2BAA2BAED91049150
:1003A00008BBB2BAA2BAED91049108BBB2BAA2BA24
:1003B000ED91049108BBB2BAA2BAED91049108BBC9
:1003C000B2BAA2BAED91049108BBB2BAA2BAED9149
:1003D000049108BBB2BAA2BAED91049108BBB2BABB
:1003E000A2BAED91049108BBB2BAA2BAED91049100
:1003F00008BBB2BAA2BAED91049108BBB2BAA2BAD4
:10040000ED91049108BBB2BAA2BAED91049108BB78
:10041000B2BAA2BAED91049108BBB2BAA2BAED91F8
:10042000049108BBB2BAA2BAED91049108BBB2BA6A
:10043000A2BAED91049108BBB2BAA2BAED910491AF
:1004400008BBB2BAA2BAED91049108BBB2BAA2BA83
:10045000ED91049108BBB2BAA2BAED91049108BB28
:10046000B2BAA2BAED91049108BBB2BAA2BAED91A8
:10047000049108BBB2BAA2BAED91049108BBB2BA1A
:10048000A2BAED91049108BBB2BAA2BAED9104915F
:1004900008BBB2BAA2BAED91049108BBB2BAA2BA33
:1004A000ED91049108BBB2BAA2BAED91049108BBD8
:1004B000B2BAA2BAED91049108BBB2BAA2BAED9158
:1004C000049108BBB2BAA2BAED91049108BBB2BACA
:1004D000A2BAED91049108BBB2BAA2BAED9104910F
:1004E00008BBB2BAA2BAED91049108BBB2BAA2BAE3
:1004F000ED91049108BBB2BAA2BAED91049108BB88
:10050000B2BAA2BAED91049108BBB2BAA2BAED9107
:10051000049108BBB2BAA2BAED91049108BBB2BA79
:10052000A2BAED91049108BBB2BAA2BAED910491BE
:1005300008BBB2BAA2BAED91049108BBB2BAA2BA92
:10054000ED91049108BBB2BAA2BA6395439509F440
:1005500053950F910FBF0F91FF91EF911F900F9047
:10056000189518950E2D003019F4F5E0E72F099431
:100570000E2D0E3059F4703508F01FC0C21BD0404C
:10058000272F70E0C20FD71F988017C00E2D0F3095
:1005900081F4793108F011C0C0E5D0E67F71372FC2
:1005A000C39F70E00D0E171EE001C20FD71F988089
:1005B00004C00E2D0A3109F441D000E0E02E089568
:1005C00070E27993239577E07223D1F739C070E216
:1005D000CF93DF932F93799323952035E1F72F91D4
:1005E000DF91CF919880089570E2CF93DF932F939E
:1005F00078837A932A952030E1F72F91DF91CF917C
:100600009880089570E2CF93DF9378837A93D03007
:10061000E9F7C036D9F7DF91CF919880089570E25D
:10062000CF93DF9378837993D830E9F7C033D9F744
:10063000DF91CF91988008957FE300C0799323954F
:10064000203541F420E03395393121F4A097E0972B
:1006500038E12CC098800895C21BD04020E09880DB
:100660000895383119F13395A096E0969880089551
:1006700070E27883972E0895203021F4303031F0E5
:100680003A9520E52A9570E27A93972E0895D0E066
:1006900008C0E0E6F0E0C0EDD7E070E2719321978A
:1006A000E9F7C0E620E030E098800895CF93DF932B
:1006B000C0E6D0E0E0EBF0E071917993E033E1F750
:1006C000F830D1F770E27993C033E9F7DF91CF9139
:1006D00098800895CF93DF93C0EED7E0E0E3F8E091
:1006E0007A917293C036E1F7D030D1F770E272930D
:1006F000E036E9F7F030D9F7DF91CF91988008958F
:10070000CF93DF93C0E6D0E0E1E6F0E0719179931A
:10071000E033E1F7F830D1F770E27883A097E09703
:10072000CF35D9F7D030C9F7DF91CF9198800895B0
:10073000CF93DF93CFE2D8E0E0E3F8E07A917293D1
:10074000C036E1F7D030D1F770E27883E096A0961A
:10075000C033D9F7D830C9F7DF91CF919880089589
:100760008FE508958BED089580E0089590E0089559
:100770009FEF08953030D1F03A95A097E097988098
:100780000895383199F03395A096E09698800895B1
:10079000203061F02A952197988008952F3431F008
:0E07A0002395219698800895E72E08950895D8
:100A0000D5CE45CEB1CEAECEABCEB0CEB1CECECE23
:100A100033CED6CD26CECACE3CCE1ECEC5CEC4CE8B
:100A2000E3CDD5CDEFCDFBCD41CE54CE69CE80CE3A
:100A300003CE02CEB9CEBACEB1CEAACE9BCEA1CE37
:100A4000FDCDFCCDFBCDFACDF9CDF8CDF7CDF6CD72
:100A5000F5CDF4CDF3CDF2CDF1CDF0CDEFCDEECDA2
:100A6000EDCDECCDEBCDEACDE9CDE8CDE7CDE6CDD2
:100A7000E5CDE4CDE3CDE2CDE1CDE0CDDFCDDECD02
:100A8000DDCDDCCDDBCDDACDD9CDD8CDD7CDD6CD32
:100A9000D5CDD4CDD3CDD2CDD1CDD0CDCFCDCECD62
:100AA000CDCDCCCDCBCDCACDC9CDC8CDC7CDC6CD92
:100AB000C5CDC4CDC3CDC2CDC1CDC0CDBFCDBECDC2
:100AC000BDCDBCCDBBCDBACDB9CDB8CDB7CDB6CDF2
:100AD000B5CDB4CDB3CDB2CDB1CDB0CDAFCDAECD22
:100AE000ADCDACCDABCDAACDA9CDA8CDA7CDA6CD52
:100AF000A5CDA4CDA3CDA2CDA1CDA0CD9FCDB8CD68
:100B00009DCD9CCD9BCD9ACD99CD98CD97CD96CDB1
:100B100095CD94CD93CD92CD91CD90CD8FCD8ECDE1
:100B20008DCD8CCD8BCD8ACD89CD88CD87CD86CD11
:100B300085CD84CD83CD82CD81CD80CD7FCD7ECD41
:100B40007DCD7CCD7BCD7ACD79CD78CD77CD76CD71
:100B500075CD74CD73CD72CD71CD70CD6FCD6ECDA1
:100B60006DCD6CCD6BCD6ACD69CD68CD67CD66CDD1
:100B700065CD64CD63CD62CD61CD60CD5FCD5ECD01
:100B80005DCD5CCD5BCD5ACD59CD58CD57CD56CD31
:100B900055CD54CD53CD52CD51CD50CD4FCD4ECD61
:100BA0004DCD4CCD4BCD4ACD49CD48CD47CD46CD91
:100BB00045CD44CD43CD42CD41CD40CD3FCD3ECDC1
:100BC0003DCD3CCD3BCD3ACD39CD38CD37CD36CDF1
:100BD00035CD34CD33CD32CD31CD30CD2FCD2ECD21
:100BE0002DCD2CCD2BCD2ACD29CD28CD27CD26CD51
:100BF00025CD24CD23CD22CD21CD20CD1FCD1ECD81
:10100000007E7E6C10381000FF00FF0F3C3F7F1801
:10101000800218667F3E00181818000000000000CB
:1010200000306C6C30003860186000000000000672
:101030007C3078781CFC38FC7878000018006078E8
:101040007C30FC3CF8FEFE3CCC781EE6F0C6C63890
:10105000FC78FC78FCCCCCC6C6CCFE78C0781000FE
:101060003000E0001C003800E0300CE070000000B0
:1010700000000000100000000000001C18E07600D6
:1010800078001C7ECCE030007ECCE0CC7CE0C6302A
:101090001C003E780000780000C3CC1838CCF80E55
:1010A0001C38000000FC3C38300000C3C3180000AE
:1010B0002255DB1818183600003636003636180070
:1010C0001818001800181836360036003600361882
:1010D0003600003618000036181800FF00F00FFF29
:1010E00000000000FC000000FC38381C00063878C6
:1010F000003060180E1830003800000F78700000C3
:101100000081FFFE387C1000FF3CC307663363DBC1
:10111000E00E3C66DB63003C3C181830002418FFEE
:1011200000786C6C7CC66C60303066300000000C5F
:10113000C670CCCC3CC060CCCCCC3030300030CC95
:10114000C67866666C626266CC300C6660EEE66CF1
:1011500066CC66CCB4CCCCC6C6CCC66060183800B1
:10116000300060000C006C00600000603000000087
:101170000000000030000000000000301830DC10DB
:10118000CCCC00C300003000C3000000C6003830E3
:1011900000006CCCCCE0CCE0CC1800186CCCCC1BA4
:1011A00000001C1CF8006C6C000000C6C61833CC94
:1011B00088AA771818183600003636003636180018
:1011C0001818001800181836360036003600361881
:1011D0003600003618000036181800FF00F00FFF28
:1011E0000078FCFECC006676306C6C30000C60CC75
:1011F000FC3030301B1830766C00000C6C1800008E
:1012000000A5DBFE7C383818E766990F663F7F3C07
:10121000F83E7E66DB38007E7E180C60C0663CFFC0
:1012200000786CFEC0CC38C060183C30000000185C
:10123000CE300C0C6CF8C00CCCCC303060FC180CF0
:10124000DECC66C0666868C0CC300C6C60FEF6C64A
:1012500066CC666030CCCCC66CCC8C6030186C0030
:10126000187860780C7860766C700C6630CCF87802
:10127000DC76DC7C7CCCCCC6C6CCFC3018300038AC
:10128000C000783C787878783C78787038706C005A
:10129000FC7FCC0000000000003CCC7E6478CC18C1
:1012A0007870000000CC6C6C300000CCCC0066661E
:1012B0002255DB1818F83600F8F636FEF636F80038
:1012C0001818001800181F36373FF7FF37FFF7FFD1
:1012D00036FF00361F1F0036FF1800FF00F00FFF1B
:1012E00076CCCC6C607E66DC78C6C6187E7EC0CCC0
:1012F00000FC18601B1800DC6C00000C6C303C001B
:101300000081FFFEFEFE7C3CC342BD7D663063E78C
:10131000FEFE18667B6C00181818FEFEC0FF7E7E6D
:101320000030006C781876006018FFFC00FC00307C
:10133000DE303838CC0CF818787C0000C0000C186F
:10134000DECC7CC0667878C0FC300C7860FEDEC6EF
:101350007CCC7C3030CCCCD6387818601818C600DD
:10136000000C7CCC7CCCF0CC76300C6C30FECCCC41
:1013700066CC76C030CCCCD66CCC98E0001C006C2F
:10138000CCCCCC060C0C0CC066CCCC301830C6785B
:10139000600CFE787878CCCCCC66CCC0F0FCFA3C03
:1013A0000C3078CCF8EC3E3860FCFCDEDB18CC333B
:1013B00088AAEE18181836001806360606361800E1
:1013C00018180018001818363030000030000000DF
:1013D0003600003618180036181800FF00F00FFF0E
:1013E000DCF8C06C30D86618CCFEC67CDBDBF8CCF1
:1013F000FC3030301818FC003818000C6C603C00D1
:1014000000BDC37C7CFEFE3CC342BDCC3C3063E7E8
:10141000F83E18661B6C7E7E187E0C60C066FF3C32
:10142000003000FE0C30DC0060183C300000006032
:10143000F630600CFE0CCC30CC0C00006000183094
:10144000DEFC66C0666868CECC30CC6C62D6CEC698
:1014500060DC6C1830CCCCFE383032600C180000E8
:10146000007C66C0CCFC60CC66300C7830FECCCC06
:1014700066CC667830CCCCFE38CC3030183000C624
:1014800078CCFC3E7C7C7CC07EFCFC301830FECCF2
:10149000787FCCCCCCCCCCCCCC66CCC06030C61861
:1014A0007C30CCCCCCFC0000C0C00C333718666656
:1014B0002255DB18F8F8F6FEF8F636F6FEFEF8F8D8
:1014C0001FFFFF1FFFFF1F373F37FFF737FFF7FFF4
:1014D000FFFFFF3F1F1F3FFFFFF81FFFFFF00F0041
:1014E000C8CCC06C60D86618CCC66CCCDBDBC0CC7A
:1014F0000030601818180076001818EC6C783C0062
:101500000099E73838D67C18E76699CC1870673CA4
:10151000E00E7E001B387E3C183C1830FE24FF187D
:101520000000006CF866CC0030306630300030C00F
:10153000E630CCCC0CCCCC30CC18303030FC300089
:10154000C0CC66666C626066CC30CC6666C6C66C23
:10155000607866CC30CC78EE6C306660061800009F
:1015600000CC66CCCCC0607C6630CC6C30D6CCCCA9
:101570007C7C600C34CC78FE6C7C6430183000C607
:1015800018CCC066CCCCCC7860C0C0301830C6FC5B
:1015900060CCCCCCCCCCCCCC7C3CCC7EE6FCCF188C
:1015A000CC30CCCCCCDC7E7CCCC00C666F1833CC81
:1015B00088AA7718181836361836363600000018FC
:1015C00000001818001818360036003636003600AD
:1015D0000018360000183636180018FFFFF00F000C
:1015E000DCF8C06CCCD87C18786C6CCC7E7E60CC7F
:1015F000FC00000018D830DC0000006C00003C004B
:101600000081FF1010101000FF3CC3CC7EF0E6DB21
:1016100080023C661BCC7E181818000000000000F9
:101620000030006C30C6760018600000300030805A
:101630007CFCFC781E787830787030301800603090
:1016400078CCFC3CF8FEF03ECC7878E6FEC6C63896
:10165000F01CE67878FC30C6C678FE780278000088
:101660000076DC787678F00CE678CCE678C6CC7834
:10167000600CF0F81876306CC60CFC1C18E000FE0C
:101680000C7E783F7E7E7E0C3C7878783C78C6CCA9
:10169000FC7FCE7878787E7E0C187818FC30C6D81F
:1016A0007E78787ECCCC0000780000CCCF1800008B
:1016B0002255DB1818183636183636360000001852
:1016C00000001818001818360036003636003600AC
:1016D0000018360000183636180018FFFFF00F000B
:1016E00076C0C06CFC7060183038EE78006038CC82
:1016F00000FCFCFC18D830000000003C000000009A
:10170000007E7E0000383800FF00FF7818E0C01827
:1017100000001800007800FF00000000000000003A
:101720000000000000000000000000006000000059
:101730000000000000000000000000600000000049
:101740000000000000000000000000000000000099
:10175000000000000000000000000000000000FF8A
:1017600000000000000000F8000078000000000009
:10177000F01E00000000000000F800000000000063
:1017800078000000000000380000000000000000A9
:101790000000000000000000F80000180030C770D2
:1017A00000000000000000000000000F0300000027
:1017B00088AAEE1818183636183636360000001883
:1017C00000001818001818360036003636003600AB
:1017D0000018360000183636180018FFFFF00F000A
:1017E00000C000000000C000FC00000000C00000BD
:1017F00000000000187000000000001C0000000045
:00000001FF
