:100000009DC0B7C0FDC0B5C0B4C0B3C0B2C034C39A
:10001000B0C0AFC0AEC0ADC0ACC0ABC0AAC0A9C07C
:10002000A8C0A7C09FC1A5C0A4C0A3C0A2C0A1C0B2
:10003000A0C09FC0009500918F8D8E9800969492DD
:100040009000AC00000000000051210000005A5355
:1000500041572200004358444524A33A0020564605
:1000600054522500004E424847595E00004C4D4A0C
:1000700055262A00003C4B494F292800003E3F4CA2
:100080003A505F00000040007B2B000000000D7D17
:10009000007E0000007C00000008000031003437C2
:1000A00000000000302E323536380300972B332DF8
:1000B0002A39000000000087008900858381828C36
:1000C000008A888684070600000000000071310065
:1000D00000007A7361773200006378646534333BE3
:1000E0000020766674723500006E626867793607A4
:1000F000082C6D6A75373800002C6B696F30390039
:10010000002E2F6C3B702D00000027005B3D00008F
:1001100000000D5D00230000005C000000000800EE
:100120000031003437000000302E323536380300FD
:100130008B2B332D2A3900000000008711241FBEAD
:10014000CFEFD4E0DEBFCDBF11E0A0E0B1E0EEE83C
:10015000F8E002C005900D92A030B107D9F714E085
:10016000A0E0B1E001C01D92AC36B107E1F7B4D216
:100170008CC346CF80916704909168042091580405
:10018000309159048217930710F4805E9C4F821BB4
:10019000930B22E08A38920710F45A98089522E0CF
:1001A0008F3E920708F05A9A0895E2EBF0E0108231
:1001B00086E695E00197F1F70000539A5B9886E692
:1001C00095E00197F1F70000549A5C9886E695E077
:1001D0000197F1F7000053985C98108281E08093BA
:1001E0006004109233018093630408958AB1877E7E
:1001F0008AB90895813011F45C9A08955C98089545
:100200001F920F920FB60F9211242F933F934F938B
:100210005F936F937F938F939F93AF93BF93EF936E
:10022000FF931092B200809163048130A9F54B9B3B
:100230006CC0809133018F5F809333018A3009F461
:10024000D5DF809133018B3029F410926304109232
:10025000330159C0893039F480916004813009F04C
:1002600080E0C8DF52C08091000180FF0DC081E0B6
:10027000C1DF80916004813019F41092600406C0DF
:1002800081E08093600402C080E0B4DF80910001CF
:1002900086958093000139C04B9937C08091330116
:1002A0008F5F80933301813081F18A3071F18B301F
:1002B00019F41092330129C09091570496959093A8
:1002C00057044C9B03C09058909357048930E9F42D
:1002D00080916A0490916B0401968233910510F02D
:1002E00080E090E020915E0430915F0482179307D4
:1002F00051F0FC01EF5FFE4F209157042083909353
:100300006B0480936A0410925704FF91EF91BF91A0
:10031000AF919F918F917F916F915F914F913F919D
:100320002F910F900FBE0F901F90189581E0909124
:100330006104913009F080E090916504913009F4F6
:100340008E5F90916604913009F48C5F9DEE9093DE
:100350005D0480935C0482E08093350181E08093AA
:10036000360108951F920F920FB60F9211242F930A
:100370003F934F935F936F937F938F939F93AF932D
:10038000BF93EF93FF938091C0004091C6008C71A2
:1003900009F04FE38091670490916804019623E08F
:1003A0008032920714F080E090E020915804309160
:1003B00059048217930741F0FC01E95CFE4F40832A
:1003C0009093680480936704D5DEFF91EF91BF910D
:1003D000AF919F918F917F916F915F914F913F91DD
:1003E0002F910F900FBE0F901F9018951092C5007F
:1003F00085E08093C40086E08093C20088E9809302
:10040000C10008959091C00095FFFCCF8093C60075
:10041000089525B1287093B19470990F2917C9F7E1
:1004200080FF02C090E201C090E081FD905F82FDFC
:10043000985F83FD9C5F84FD9E5F85FD9F5F98B9FB
:1004400095B1987086FD905E87FD905F95B900002C
:1004500000000000000085B198E0892785B9089563
:10046000CF93DF930F92CDB7DEB720916704309121
:100470006804809158049091590428173907D1F0E5
:10048000F89420915804309159042F5F3F4F83E036
:100490002032380710F020E030E0F901E95CFE4F2F
:1004A000808130935904209358047894898362DEC4
:1004B000898101C080E00F90DF91CF910895D0DF56
:1004C0008823E9F3089520916A0430916B048091A8
:1004D0005E0490915F0428173907B1F0F8942091D9
:1004E0005E0430915F042F5F3F4F2233310510F0DF
:1004F00020E030E0F901EF5FFE4F808130935F0430
:1005000020935E047894089580E00895CF93DBDF14
:10051000C82F882309F4AEC08A3F21F481E080937C
:100520003601A6C080916904803FB1F4C03E09F451
:10053000A1C0C0936904C23111F0C93511F4109201
:100540006204C43119F41092340194C0C13109F02D
:1005500091C0109264048EC0803E21F080916504A9
:10056000882309F5C0936904C53711F485E019C0E3
:10057000C23711F488E115C0CB3611F480E111C007
:10058000C43711F484E00DC0C03751F0C13741F0D9
:10059000CC3631F0C93621F0CD3711F0CA3719F415
:1005A00081E030DF67C0C23111F0C93521F481E04C
:1005B000809362045DC0C43121F481E080933401F2
:1005C00057C0C13121F481E08093640451C0C83523
:1005D00059F480916604813019F4109266041DC0AC
:1005E00081E08093660419C0C73759F4809165048F
:1005F000813019F41092650410C081E08093650485
:100600000CC0CE3761F480916104813019F41092EE
:10061000610403C081E08093610488DE29C0C4388E
:1006200038F580916204EC2FF0E0882319F4E85447
:10063000FF4F02C0EC5CFF4F84918823C9F0982FD4
:1006400091569A3130F490916604913011F48052B1
:1006500009C0982F91549A3128F4909166049130F2
:1006600009F4805E90913401913009F48F71CADEF3
:10067000C0936904CF9108951F920F920FB60F9205
:1006800011242F933F934F935F936F937F938F9397
:100690009F93AF93BF93EF93FF9310923301109208
:1006A00057041092350180916304813021F47DDD7F
:1006B0009DDD10926304FF91EF91BF91AF919F91E7
:1006C0008F917F916F915F914F913F912F910F90FB
:1006D0000FBE0F901F90189510926B0410926A0431
:1006E00010925F0410925E0410923301109269041C
:1006F00010926804109267041092590410925804E2
:100700001092630410923501109236011092600429
:1007100015B81BB888E384B984E08AB99FE397B918
:1007200080936900C2E0CDBB109262041092340144
:100730001092640410926604109265041092610491
:1007400055DE80917000826080937000C093B0008D
:1007500087E08093B10087ED8093B300789412E036
:100760007FDE882309F45DC08B3109F059C0A7DE14
:100770008B3509F056C0A3DEC0E00AC0C43638F499
:100780008C2F880FC82FCC0FCC0FC80FC90F97DE46
:10079000982F90539A3090F38B3391F490DED0E001
:1007A0000AC0D43638F48D2F880FD82FDD0FDD0F17
:1007B000D80FD90F84DE982F90539A3090F301C050
:1007C000D0E0883411F0863661F4C111C150D111E6
:1007D000D1508FE01EDE8C2F1CDE8EE01ADE8D2FB6
:1007E0001FC08A3461F4CC2311F483E119C0C130F5
:1007F00011F482E115C0C230A1F48CE011C08B3439
:1008000041F4CC2311F481E10BC0C13051F480E1FB
:1008100007C08C3411F485E103C08D3411F484E1F8
:10082000F8DD74DE80916304882309F099CF80910C
:100830003501882309F494CF833039F480915A0428
:1008400080930001109335011EC0823071F48091B5
:100850003601813009F084CF1092360190915D0409
:1008600090930001809335010EC0813009F078CF5C
:1008700080913601813009F073CF80915C048093C0
:0E08800000011092350191DC6BCFF894FFCF90
:00000001FF
